{
  "contractName": "AidaICO",
  "abi": [
    {
      "constant": false,
      "inputs": [
        {
          "name": "_investor",
          "type": "address"
        },
        {
          "name": "_aidValue",
          "type": "uint256"
        },
        {
          "name": "_txHash",
          "type": "string"
        }
      ],
      "name": "buyForInvestor",
      "outputs": [],
      "payable": false,
      "stateMutability": "nonpayable",
      "type": "function"
    },
    {
      "constant": true,
      "inputs": [],
      "name": "AID",
      "outputs": [
        {
          "name": "",
          "type": "address"
        }
      ],
      "payable": false,
      "stateMutability": "view",
      "type": "function"
    },
    {
      "constant": true,
      "inputs": [
        {
          "name": "",
          "type": "address"
        }
      ],
      "name": "tokensIcoInOtherCrypto",
      "outputs": [
        {
          "name": "",
          "type": "uint256"
        }
      ],
      "payable": false,
      "stateMutability": "view",
      "type": "function"
    },
    {
      "constant": true,
      "inputs": [],
      "name": "Controller_Address1",
      "outputs": [
        {
          "name": "",
          "type": "address"
        }
      ],
      "payable": false,
      "stateMutability": "view",
      "type": "function"
    },
    {
      "constant": false,
      "inputs": [],
      "name": "pausePreIco",
      "outputs": [],
      "payable": false,
      "stateMutability": "nonpayable",
      "type": "function"
    },
    {
      "constant": false,
      "inputs": [],
      "name": "finishPreIco",
      "outputs": [],
      "payable": false,
      "stateMutability": "nonpayable",
      "type": "function"
    },
    {
      "constant": true,
      "inputs": [
        {
          "name": "",
          "type": "address"
        }
      ],
      "name": "tokensPreIco",
      "outputs": [
        {
          "name": "",
          "type": "uint256"
        }
      ],
      "payable": false,
      "stateMutability": "view",
      "type": "function"
    },
    {
      "constant": false,
      "inputs": [
        {
          "name": "_RateEth",
          "type": "uint256"
        }
      ],
      "name": "setRate",
      "outputs": [],
      "payable": false,
      "stateMutability": "nonpayable",
      "type": "function"
    },
    {
      "constant": true,
      "inputs": [],
      "name": "Controller_Address3",
      "outputs": [
        {
          "name": "",
          "type": "address"
        }
      ],
      "payable": false,
      "stateMutability": "view",
      "type": "function"
    },
    {
      "constant": false,
      "inputs": [
        {
          "name": "_value",
          "type": "uint256"
        }
      ],
      "name": "withdrawEther",
      "outputs": [],
      "payable": false,
      "stateMutability": "nonpayable",
      "type": "function"
    },
    {
      "constant": true,
      "inputs": [],
      "name": "PartnersFund",
      "outputs": [
        {
          "name": "",
          "type": "address"
        }
      ],
      "payable": false,
      "stateMutability": "view",
      "type": "function"
    },
    {
      "constant": true,
      "inputs": [],
      "name": "RefundManager",
      "outputs": [
        {
          "name": "",
          "type": "address"
        }
      ],
      "payable": false,
      "stateMutability": "view",
      "type": "function"
    },
    {
      "constant": true,
      "inputs": [],
      "name": "BountyFund",
      "outputs": [
        {
          "name": "",
          "type": "address"
        }
      ],
      "payable": false,
      "stateMutability": "view",
      "type": "function"
    },
    {
      "constant": true,
      "inputs": [],
      "name": "TeamFund",
      "outputs": [
        {
          "name": "",
          "type": "address"
        }
      ],
      "payable": false,
      "stateMutability": "view",
      "type": "function"
    },
    {
      "constant": true,
      "inputs": [
        {
          "name": "_value",
          "type": "uint256"
        }
      ],
      "name": "getBonus",
      "outputs": [
        {
          "name": "",
          "type": "uint256"
        }
      ],
      "payable": false,
      "stateMutability": "view",
      "type": "function"
    },
    {
      "constant": true,
      "inputs": [],
      "name": "Company",
      "outputs": [
        {
          "name": "",
          "type": "address"
        }
      ],
      "payable": false,
      "stateMutability": "view",
      "type": "function"
    },
    {
      "constant": true,
      "inputs": [],
      "name": "Token_Price",
      "outputs": [
        {
          "name": "",
          "type": "uint256"
        }
      ],
      "payable": false,
      "stateMutability": "view",
      "type": "function"
    },
    {
      "constant": false,
      "inputs": [],
      "name": "enableTokensTransfer",
      "outputs": [],
      "payable": false,
      "stateMutability": "nonpayable",
      "type": "function"
    },
    {
      "constant": true,
      "inputs": [],
      "name": "Manager",
      "outputs": [
        {
          "name": "",
          "type": "address"
        }
      ],
      "payable": false,
      "stateMutability": "view",
      "type": "function"
    },
    {
      "constant": true,
      "inputs": [
        {
          "name": "",
          "type": "address"
        }
      ],
      "name": "tokensIco",
      "outputs": [
        {
          "name": "",
          "type": "uint256"
        }
      ],
      "payable": false,
      "stateMutability": "view",
      "type": "function"
    },
    {
      "constant": false,
      "inputs": [],
      "name": "startIco",
      "outputs": [],
      "payable": false,
      "stateMutability": "nonpayable",
      "type": "function"
    },
    {
      "constant": true,
      "inputs": [
        {
          "name": "",
          "type": "address"
        }
      ],
      "name": "ethPreIco",
      "outputs": [
        {
          "name": "",
          "type": "uint256"
        }
      ],
      "payable": false,
      "stateMutability": "view",
      "type": "function"
    },
    {
      "constant": true,
      "inputs": [],
      "name": "Tokens_Per_Dollar",
      "outputs": [
        {
          "name": "",
          "type": "uint256"
        }
      ],
      "payable": false,
      "stateMutability": "view",
      "type": "function"
    },
    {
      "constant": false,
      "inputs": [
        {
          "name": "_investor",
          "type": "address"
        },
        {
          "name": "_logString",
          "type": "string"
        }
      ],
      "name": "returnOtherCrypto",
      "outputs": [],
      "payable": false,
      "stateMutability": "nonpayable",
      "type": "function"
    },
    {
      "constant": true,
      "inputs": [
        {
          "name": "",
          "type": "address"
        }
      ],
      "name": "tokensPreIcoInOtherCrypto",
      "outputs": [
        {
          "name": "",
          "type": "uint256"
        }
      ],
      "payable": false,
      "stateMutability": "view",
      "type": "function"
    },
    {
      "constant": false,
      "inputs": [],
      "name": "startPreIco",
      "outputs": [],
      "payable": false,
      "stateMutability": "nonpayable",
      "type": "function"
    },
    {
      "constant": true,
      "inputs": [],
      "name": "Controller_Address2",
      "outputs": [
        {
          "name": "",
          "type": "address"
        }
      ],
      "payable": false,
      "stateMutability": "view",
      "type": "function"
    },
    {
      "constant": true,
      "inputs": [
        {
          "name": "",
          "type": "address"
        }
      ],
      "name": "used",
      "outputs": [
        {
          "name": "",
          "type": "bool"
        }
      ],
      "payable": false,
      "stateMutability": "view",
      "type": "function"
    },
    {
      "constant": false,
      "inputs": [],
      "name": "pauseIco",
      "outputs": [],
      "payable": false,
      "stateMutability": "nonpayable",
      "type": "function"
    },
    {
      "constant": true,
      "inputs": [
        {
          "name": "",
          "type": "address"
        }
      ],
      "name": "ethIco",
      "outputs": [
        {
          "name": "",
          "type": "uint256"
        }
      ],
      "payable": false,
      "stateMutability": "view",
      "type": "function"
    },
    {
      "constant": true,
      "inputs": [],
      "name": "Rate_Eth",
      "outputs": [
        {
          "name": "",
          "type": "uint256"
        }
      ],
      "payable": false,
      "stateMutability": "view",
      "type": "function"
    },
    {
      "constant": false,
      "inputs": [],
      "name": "returnEther",
      "outputs": [],
      "payable": false,
      "stateMutability": "nonpayable",
      "type": "function"
    },
    {
      "constant": false,
      "inputs": [],
      "name": "finishIco",
      "outputs": [],
      "payable": false,
      "stateMutability": "nonpayable",
      "type": "function"
    },
    {
      "constant": true,
      "inputs": [],
      "name": "daysFromIcoStart",
      "outputs": [
        {
          "name": "",
          "type": "uint256"
        }
      ],
      "payable": false,
      "stateMutability": "view",
      "type": "function"
    },
    {
      "constant": true,
      "inputs": [],
      "name": "Oracle",
      "outputs": [
        {
          "name": "",
          "type": "address"
        }
      ],
      "payable": false,
      "stateMutability": "view",
      "type": "function"
    },
    {
      "inputs": [
        {
          "name": "_Company",
          "type": "address"
        },
        {
          "name": "_BountyFund",
          "type": "address"
        },
        {
          "name": "_PartnersFund",
          "type": "address"
        },
        {
          "name": "_TeamFund",
          "type": "address"
        },
        {
          "name": "_Manager",
          "type": "address"
        },
        {
          "name": "_Controller_Address1",
          "type": "address"
        },
        {
          "name": "_Controller_Address2",
          "type": "address"
        },
        {
          "name": "_Controller_Address3",
          "type": "address"
        },
        {
          "name": "_Oracle",
          "type": "address"
        },
        {
          "name": "_RefundManager",
          "type": "address"
        }
      ],
      "payable": false,
      "stateMutability": "nonpayable",
      "type": "constructor"
    },
    {
      "payable": true,
      "stateMutability": "payable",
      "type": "fallback"
    },
    {
      "anonymous": false,
      "inputs": [],
      "name": "LogStartICO",
      "type": "event"
    },
    {
      "anonymous": false,
      "inputs": [],
      "name": "LogPauseICO",
      "type": "event"
    },
    {
      "anonymous": false,
      "inputs": [
        {
          "indexed": false,
          "name": "bountyFund",
          "type": "address"
        },
        {
          "indexed": false,
          "name": "partnersFund",
          "type": "address"
        },
        {
          "indexed": false,
          "name": "teamFund",
          "type": "address"
        }
      ],
      "name": "LogFinishICO",
      "type": "event"
    },
    {
      "anonymous": false,
      "inputs": [
        {
          "indexed": false,
          "name": "investor",
          "type": "address"
        },
        {
          "indexed": false,
          "name": "aidValue",
          "type": "uint256"
        },
        {
          "indexed": false,
          "name": "txHash",
          "type": "string"
        }
      ],
      "name": "LogBuyForInvestor",
      "type": "event"
    },
    {
      "anonymous": false,
      "inputs": [
        {
          "indexed": false,
          "name": "investor",
          "type": "address"
        },
        {
          "indexed": false,
          "name": "eth",
          "type": "uint256"
        }
      ],
      "name": "LogReturnEth",
      "type": "event"
    },
    {
      "anonymous": false,
      "inputs": [
        {
          "indexed": false,
          "name": "investor",
          "type": "address"
        },
        {
          "indexed": false,
          "name": "logString",
          "type": "string"
        }
      ],
      "name": "LogReturnOtherCrypto",
      "type": "event"
    }
  ],
  "bytecode": "0x6060604052306200000f62000445565b808273ffffffffffffffffffffffffffffffffffffffff1673ffffffffffffffffffffffffffffffffffffffff168152602001915050604051809103906000f08015156200005c57600080fd5b6000806101000a81548173ffffffffffffffffffffffffffffffffffffffff021916908373ffffffffffffffffffffffffffffffffffffffff1602179055506102bc6001556004600255620000cd6001546002546200040f6401000000000262000a76179091906401000000009004565b60035560006004556000600e60146101000a81548160ff02191690836006811115620000f557fe5b021790555034156200010657600080fd5b60405161014080620045ca8339810160405280805190602001909190805190602001909190805190602001909190805190602001909190805190602001909190805190602001909190805190602001909190805190602001909190805190602001909190805190602001909190505089600560006101000a81548173ffffffffffffffffffffffffffffffffffffffff021916908373ffffffffffffffffffffffffffffffffffffffff16021790555088600660006101000a81548173ffffffffffffffffffffffffffffffffffffffff021916908373ffffffffffffffffffffffffffffffffffffffff16021790555087600760006101000a81548173ffffffffffffffffffffffffffffffffffffffff021916908373ffffffffffffffffffffffffffffffffffffffff16021790555086600860006101000a81548173ffffffffffffffffffffffffffffffffffffffff021916908373ffffffffffffffffffffffffffffffffffffffff16021790555085600960006101000a81548173ffffffffffffffffffffffffffffffffffffffff021916908373ffffffffffffffffffffffffffffffffffffffff16021790555084600a60006101000a81548173ffffffffffffffffffffffffffffffffffffffff021916908373ffffffffffffffffffffffffffffffffffffffff16021790555083600b60006101000a81548173ffffffffffffffffffffffffffffffffffffffff021916908373ffffffffffffffffffffffffffffffffffffffff16021790555082600c60006101000a81548173ffffffffffffffffffffffffffffffffffffffff021916908373ffffffffffffffffffffffffffffffffffffffff16021790555081600d60006101000a81548173ffffffffffffffffffffffffffffffffffffffff021916908373ffffffffffffffffffffffffffffffffffffffff16021790555080600e60006101000a81548173ffffffffffffffffffffffffffffffffffffffff021916908373ffffffffffffffffffffffffffffffffffffffff1602179055505050505050505050505062000456565b600080828402905060008414806200043257508284828115156200042f57fe5b04145b15156200043b57fe5b8091505092915050565b604051611385806200324583390190565b612ddf80620004666000396000f3006060604052600436106101b6576000357c0100000000000000000000000000000000000000000000000000000000900463ffffffff16806252992e1461024457806302e635e61461029a57806308756c40146102ef5780631ed5da2f1461033c5780632a93b5bb146103915780632ea3ad74146103a6578063301e8078146103bb57806334fcf43714610408578063353559cb1461042b5780633bed33ce146104805780633d9e23ca146104a35780633e799335146104f857806342f0b07e1461054d57806349e67544146105a25780634aa66b28146105f75780635092f97e1461062e5780635bdaa6dd1461068357806373cb8ab7146106ac57806378357e53146106c15780637f1e0d791461071657806389311e6f1461076357806398cd0e2114610778578063b2a8ff45146107c5578063b9713003146107ee578063bd24db1e1461083b578063c06d127214610888578063c33818fd1461089d578063c497da8d146108f2578063c4fdc6b814610943578063cb232bec14610958578063e0d1ba52146109a5578063ebb6dc3a146109ce578063ec42f82f146109e3578063f235e356146109f8578063f24a534e14610a21575b600160068111156101c357fe5b600e60149054906101000a900460ff1660068111156101de57fe5b148061020f5750600460068111156101f257fe5b600e60149054906101000a900460ff16600681111561020d57fe5b145b151561021a57600080fd5b6102383361023360035434610a7690919063ffffffff16565b610aa9565b6102423433610bc2565b005b341561024f57600080fd5b610298600480803573ffffffffffffffffffffffffffffffffffffffff169060200190919080359060200190919080359060200190820180359060200191909192905050610d4e565b005b34156102a557600080fd5b6102ad610f5b565b604051808273ffffffffffffffffffffffffffffffffffffffff1673ffffffffffffffffffffffffffffffffffffffff16815260200191505060405180910390f35b34156102fa57600080fd5b610326600480803573ffffffffffffffffffffffffffffffffffffffff16906020019091905050610f80565b6040518082815260200191505060405180910390f35b341561034757600080fd5b61034f610f98565b604051808273ffffffffffffffffffffffffffffffffffffffff1673ffffffffffffffffffffffffffffffffffffffff16815260200191505060405180910390f35b341561039c57600080fd5b6103a4610fbe565b005b34156103b157600080fd5b6103b96110a0565b005b34156103c657600080fd5b6103f2600480803573ffffffffffffffffffffffffffffffffffffffff169060200190919050506111b2565b6040518082815260200191505060405180910390f35b341561041357600080fd5b61042960048080359060200190919050506111ca565b005b341561043657600080fd5b61043e61124d565b604051808273ffffffffffffffffffffffffffffffffffffffff1673ffffffffffffffffffffffffffffffffffffffff16815260200191505060405180910390f35b341561048b57600080fd5b6104a16004808035906020019091905050611273565b005b34156104ae57600080fd5b6104b661134a565b604051808273ffffffffffffffffffffffffffffffffffffffff1673ffffffffffffffffffffffffffffffffffffffff16815260200191505060405180910390f35b341561050357600080fd5b61050b611370565b604051808273ffffffffffffffffffffffffffffffffffffffff1673ffffffffffffffffffffffffffffffffffffffff16815260200191505060405180910390f35b341561055857600080fd5b610560611396565b604051808273ffffffffffffffffffffffffffffffffffffffff1673ffffffffffffffffffffffffffffffffffffffff16815260200191505060405180910390f35b34156105ad57600080fd5b6105b56113bc565b604051808273ffffffffffffffffffffffffffffffffffffffff1673ffffffffffffffffffffffffffffffffffffffff16815260200191505060405180910390f35b341561060257600080fd5b61061860048080359060200190919050506113e2565b6040518082815260200191505060405180910390f35b341561063957600080fd5b61064161144a565b604051808273ffffffffffffffffffffffffffffffffffffffff1673ffffffffffffffffffffffffffffffffffffffff16815260200191505060405180910390f35b341561068e57600080fd5b610696611470565b6040518082815260200191505060405180910390f35b34156106b757600080fd5b6106bf611476565b005b34156106cc57600080fd5b6106d461159f565b604051808273ffffffffffffffffffffffffffffffffffffffff1673ffffffffffffffffffffffffffffffffffffffff16815260200191505060405180910390f35b341561072157600080fd5b61074d600480803573ffffffffffffffffffffffffffffffffffffffff169060200190919050506115c5565b6040518082815260200191505060405180910390f35b341561076e57600080fd5b6107766115dd565b005b341561078357600080fd5b6107af600480803573ffffffffffffffffffffffffffffffffffffffff16906020019091905050611725565b6040518082815260200191505060405180910390f35b34156107d057600080fd5b6107d861173d565b6040518082815260200191505060405180910390f35b34156107f957600080fd5b610839600480803573ffffffffffffffffffffffffffffffffffffffff169060200190919080359060200190820180359060200191909192905050611743565b005b341561084657600080fd5b610872600480803573ffffffffffffffffffffffffffffffffffffffff16906020019091905050611a8a565b6040518082815260200191505060405180910390f35b341561089357600080fd5b61089b611aa2565b005b34156108a857600080fd5b6108b0611bb4565b604051808273ffffffffffffffffffffffffffffffffffffffff1673ffffffffffffffffffffffffffffffffffffffff16815260200191505060405180910390f35b34156108fd57600080fd5b610929600480803573ffffffffffffffffffffffffffffffffffffffff16906020019091905050611bda565b604051808215151515815260200191505060405180910390f35b341561094e57600080fd5b610956611bfa565b005b341561096357600080fd5b61098f600480803573ffffffffffffffffffffffffffffffffffffffff16906020019091905050611cdc565b6040518082815260200191505060405180910390f35b34156109b057600080fd5b6109b8611cf4565b6040518082815260200191505060405180910390f35b34156109d957600080fd5b6109e1611cfa565b005b34156109ee57600080fd5b6109f6612269565b005b3415610a0357600080fd5b610a0b6128ba565b6040518082815260200191505060405180910390f35b3415610a2c57600080fd5b610a346128e4565b604051808273ffffffffffffffffffffffffffffffffffffffff1673ffffffffffffffffffffffffffffffffffffffff16815260200191505060405180910390f35b60008082840290506000841480610a975750828482811515610a9457fe5b04145b1515610a9f57fe5b8091505092915050565b600080600083111515610abb57600080fd5b610ac4836113e2565b9150610ad9828461290a90919063ffffffff16565b9050610ae58185612928565b6000809054906101000a900473ffffffffffffffffffffffffffffffffffffffff1673ffffffffffffffffffffffffffffffffffffffff1663f0dda65c85836040518363ffffffff167c0100000000000000000000000000000000000000000000000000000000028152600401808373ffffffffffffffffffffffffffffffffffffffff1673ffffffffffffffffffffffffffffffffffffffff16815260200182815260200192505050600060405180830381600087803b1515610ba857600080fd5b6102c65a03f11515610bb957600080fd5b50505050505050565b60016006811115610bcf57fe5b600e60149054906101000a900460ff166006811115610bea57fe5b1415610c8657610c4282600f60008473ffffffffffffffffffffffffffffffffffffffff1673ffffffffffffffffffffffffffffffffffffffff1681526020019081526020016000205461290a90919063ffffffff16565b600f60008373ffffffffffffffffffffffffffffffffffffffff1673ffffffffffffffffffffffffffffffffffffffff168152602001908152602001600020819055505b60046006811115610c9357fe5b600e60149054906101000a900460ff166006811115610cae57fe5b1415610d4a57610d0682601060008473ffffffffffffffffffffffffffffffffffffffff1673ffffffffffffffffffffffffffffffffffffffff1681526020019081526020016000205461290a90919063ffffffff16565b601060008373ffffffffffffffffffffffffffffffffffffffff1673ffffffffffffffffffffffffffffffffffffffff168152602001908152602001600020819055505b5050565b600a60009054906101000a900473ffffffffffffffffffffffffffffffffffffffff1673ffffffffffffffffffffffffffffffffffffffff163373ffffffffffffffffffffffffffffffffffffffff161480610df75750600b60009054906101000a900473ffffffffffffffffffffffffffffffffffffffff1673ffffffffffffffffffffffffffffffffffffffff163373ffffffffffffffffffffffffffffffffffffffff16145b80610e4f5750600c60009054906101000a900473ffffffffffffffffffffffffffffffffffffffff1673ffffffffffffffffffffffffffffffffffffffff163373ffffffffffffffffffffffffffffffffffffffff16145b1515610e5a57600080fd5b60016006811115610e6757fe5b600e60149054906101000a900460ff166006811115610e8257fe5b1480610eb3575060046006811115610e9657fe5b600e60149054906101000a900460ff166006811115610eb157fe5b145b1515610ebe57600080fd5b610ec88484612ab4565b7fa8f899a090efad1c1d17d3e3c18b0fc5b732d226b7ce367ab7f00fd824029acc84848484604051808573ffffffffffffffffffffffffffffffffffffffff1673ffffffffffffffffffffffffffffffffffffffff16815260200184815260200180602001828103825284848281815260200192508082843782019150509550505050505060405180910390a150505050565b6000809054906101000a900473ffffffffffffffffffffffffffffffffffffffff1681565b60156020528060005260406000206000915090505481565b600a60009054906101000a900473ffffffffffffffffffffffffffffffffffffffff1681565b600960009054906101000a900473ffffffffffffffffffffffffffffffffffffffff1673ffffffffffffffffffffffffffffffffffffffff163373ffffffffffffffffffffffffffffffffffffffff1614151561101a57600080fd5b6001600681111561102757fe5b600e60149054906101000a900460ff16600681111561104257fe5b14151561104e57600080fd5b6002600e60146101000a81548160ff0219169083600681111561106d57fe5b02179055507feb8cb983e71ec40f0d025e89b530e8a6601d259cf783e557b82334bf4ee7f1dc60405160405180910390a1565b600960009054906101000a900473ffffffffffffffffffffffffffffffffffffffff1673ffffffffffffffffffffffffffffffffffffffff163373ffffffffffffffffffffffffffffffffffffffff161415156110fc57600080fd5b6001600681111561110957fe5b600e60149054906101000a900460ff16600681111561112457fe5b148061115557506002600681111561113857fe5b600e60149054906101000a900460ff16600681111561115357fe5b145b151561116057600080fd5b6003600e60146101000a81548160ff0219169083600681111561117f57fe5b02179055507feb8cb983e71ec40f0d025e89b530e8a6601d259cf783e557b82334bf4ee7f1dc60405160405180910390a1565b60126020528060005260406000206000915090505481565b600d60009054906101000a900473ffffffffffffffffffffffffffffffffffffffff1673ffffffffffffffffffffffffffffffffffffffff163373ffffffffffffffffffffffffffffffffffffffff1614151561122657600080fd5b80600181905550611244600154600254610a7690919063ffffffff16565b60038190555050565b600c60009054906101000a900473ffffffffffffffffffffffffffffffffffffffff1681565b600960009054906101000a900473ffffffffffffffffffffffffffffffffffffffff1673ffffffffffffffffffffffffffffffffffffffff163373ffffffffffffffffffffffffffffffffffffffff161415156112cf57600080fd5b60096112d96128ba565b1115156112e557600080fd5b600560009054906101000a900473ffffffffffffffffffffffffffffffffffffffff1673ffffffffffffffffffffffffffffffffffffffff166108fc829081150290604051600060405180830381858888f19350505050151561134757600080fd5b50565b600760009054906101000a900473ffffffffffffffffffffffffffffffffffffffff1681565b600e60009054906101000a900473ffffffffffffffffffffffffffffffffffffffff1681565b600660009054906101000a900473ffffffffffffffffffffffffffffffffffffffff1681565b600860009054906101000a900473ffffffffffffffffffffffffffffffffffffffff1681565b60008060009050600160068111156113f657fe5b600e60149054906101000a900460ff16600681111561141157fe5b14156114415761143e6064611430600f86610a7690919063ffffffff16565b612bcd90919063ffffffff16565b90505b80915050919050565b600560009054906101000a900473ffffffffffffffffffffffffffffffffffffffff1681565b60035481565b600960009054906101000a900473ffffffffffffffffffffffffffffffffffffffff1673ffffffffffffffffffffffffffffffffffffffff163373ffffffffffffffffffffffffffffffffffffffff161415156114d257600080fd5b6006808111156114de57fe5b600e60149054906101000a900460ff1660068111156114f957fe5b14151561150557600080fd5b6000809054906101000a900473ffffffffffffffffffffffffffffffffffffffff1673ffffffffffffffffffffffffffffffffffffffff16638e0ef0336040518163ffffffff167c0100000000000000000000000000000000000000000000000000000000028152600401600060405180830381600087803b151561158957600080fd5b6102c65a03f1151561159a57600080fd5b505050565b600960009054906101000a900473ffffffffffffffffffffffffffffffffffffffff1681565b60136020528060005260406000206000915090505481565b600960009054906101000a900473ffffffffffffffffffffffffffffffffffffffff1673ffffffffffffffffffffffffffffffffffffffff163373ffffffffffffffffffffffffffffffffffffffff1614151561163957600080fd5b6003600681111561164657fe5b600e60149054906101000a900460ff16600681111561166157fe5b148061169257506005600681111561167557fe5b600e60149054906101000a900460ff16600681111561169057fe5b145b151561169d57600080fd5b600360068111156116aa57fe5b600e60149054906101000a900460ff1660068111156116c557fe5b14156116d357426004819055505b6004600e60146101000a81548160ff021916908360068111156116f257fe5b02179055507f0ed6b1715382ee8c647ec35e086f9713aa5d53bf7fd91d1e3a474d2f903d6d7e60405160405180910390a1565b600f6020528060005260406000206000915090505481565b60025481565b6000600e60009054906101000a900473ffffffffffffffffffffffffffffffffffffffff1673ffffffffffffffffffffffffffffffffffffffff163373ffffffffffffffffffffffffffffffffffffffff161415156117a157600080fd5b60009050600160068111156117b257fe5b600e60149054906101000a900460ff1660068111156117cd57fe5b141561185b57601460008573ffffffffffffffffffffffffffffffffffffffff1673ffffffffffffffffffffffffffffffffffffffff1681526020019081526020016000205490506000601460008673ffffffffffffffffffffffffffffffffffffffff1673ffffffffffffffffffffffffffffffffffffffff168152602001908152602001600020819055505b6004600681111561186857fe5b600e60149054906101000a900460ff16600681111561188357fe5b14156119285760096118936128ba565b111515156118a057600080fd5b601560008573ffffffffffffffffffffffffffffffffffffffff1673ffffffffffffffffffffffffffffffffffffffff1681526020019081526020016000205490506000601560008673ffffffffffffffffffffffffffffffffffffffff1673ffffffffffffffffffffffffffffffffffffffff168152602001908152602001600020819055505b6000809054906101000a900473ffffffffffffffffffffffffffffffffffffffff1673ffffffffffffffffffffffffffffffffffffffff16630d1118ce85836040518363ffffffff167c0100000000000000000000000000000000000000000000000000000000028152600401808373ffffffffffffffffffffffffffffffffffffffff1673ffffffffffffffffffffffffffffffffffffffff16815260200182815260200192505050600060405180830381600087803b15156119eb57600080fd5b6102c65a03f115156119fc57600080fd5b5050507f6eecc2693ab244d8ce55c70481606888e6fe7bf754e76b08779f08a144909fab848484604051808473ffffffffffffffffffffffffffffffffffffffff1673ffffffffffffffffffffffffffffffffffffffff168152602001806020018281038252848482818152602001925080828437820191505094505050505060405180910390a150505050565b60146020528060005260406000206000915090505481565b600960009054906101000a900473ffffffffffffffffffffffffffffffffffffffff1673ffffffffffffffffffffffffffffffffffffffff163373ffffffffffffffffffffffffffffffffffffffff16141515611afe57600080fd5b60006006811115611b0b57fe5b600e60149054906101000a900460ff166006811115611b2657fe5b1480611b57575060026006811115611b3a57fe5b600e60149054906101000a900460ff166006811115611b5557fe5b145b1515611b6257600080fd5b6001600e60146101000a81548160ff02191690836006811115611b8157fe5b02179055507f0ed6b1715382ee8c647ec35e086f9713aa5d53bf7fd91d1e3a474d2f903d6d7e60405160405180910390a1565b600b60009054906101000a900473ffffffffffffffffffffffffffffffffffffffff1681565b60116020528060005260406000206000915054906101000a900460ff1681565b600960009054906101000a900473ffffffffffffffffffffffffffffffffffffffff1673ffffffffffffffffffffffffffffffffffffffff163373ffffffffffffffffffffffffffffffffffffffff16141515611c5657600080fd5b60046006811115611c6357fe5b600e60149054906101000a900460ff166006811115611c7e57fe5b141515611c8a57600080fd5b6005600e60146101000a81548160ff02191690836006811115611ca957fe5b02179055507feb8cb983e71ec40f0d025e89b530e8a6601d259cf783e557b82334bf4ee7f1dc60405160405180910390a1565b60106020528060005260406000206000915090505481565b60015481565b600080601160003373ffffffffffffffffffffffffffffffffffffffff1673ffffffffffffffffffffffffffffffffffffffff16815260200190815260200160002060009054906101000a900460ff16151515611d5657600080fd5b600091506000905060016006811115611d6b57fe5b600e60149054906101000a900460ff166006811115611d8657fe5b1415611ee9576000600f60003373ffffffffffffffffffffffffffffffffffffffff1673ffffffffffffffffffffffffffffffffffffffff16815260200190815260200160002054111515611dda57600080fd5b600f60003373ffffffffffffffffffffffffffffffffffffffff1673ffffffffffffffffffffffffffffffffffffffff168152602001908152602001600020549150601260003373ffffffffffffffffffffffffffffffffffffffff1673ffffffffffffffffffffffffffffffffffffffff1681526020019081526020016000205490506000600f60003373ffffffffffffffffffffffffffffffffffffffff1673ffffffffffffffffffffffffffffffffffffffff168152602001908152602001600020819055506000601260003373ffffffffffffffffffffffffffffffffffffffff1673ffffffffffffffffffffffffffffffffffffffff168152602001908152602001600020819055505b60046006811115611ef657fe5b600e60149054906101000a900460ff166006811115611f1157fe5b141561208b576000601060003373ffffffffffffffffffffffffffffffffffffffff1673ffffffffffffffffffffffffffffffffffffffff16815260200190815260200160002054111515611f6557600080fd5b6009611f6f6128ba565b11151515611f7c57600080fd5b601060003373ffffffffffffffffffffffffffffffffffffffff1673ffffffffffffffffffffffffffffffffffffffff168152602001908152602001600020549150601360003373ffffffffffffffffffffffffffffffffffffffff1673ffffffffffffffffffffffffffffffffffffffff1681526020019081526020016000205490506000601060003373ffffffffffffffffffffffffffffffffffffffff1673ffffffffffffffffffffffffffffffffffffffff168152602001908152602001600020819055506000601360003373ffffffffffffffffffffffffffffffffffffffff1673ffffffffffffffffffffffffffffffffffffffff168152602001908152602001600020819055505b3373ffffffffffffffffffffffffffffffffffffffff166108fc839081150290604051600060405180830381858888f1935050505015156120cb57600080fd5b6001601160003373ffffffffffffffffffffffffffffffffffffffff1673ffffffffffffffffffffffffffffffffffffffff16815260200190815260200160002060006101000a81548160ff0219169083151502179055506000809054906101000a900473ffffffffffffffffffffffffffffffffffffffff1673ffffffffffffffffffffffffffffffffffffffff16630d1118ce33836040518363ffffffff167c0100000000000000000000000000000000000000000000000000000000028152600401808373ffffffffffffffffffffffffffffffffffffffff1673ffffffffffffffffffffffffffffffffffffffff16815260200182815260200192505050600060405180830381600087803b15156121e657600080fd5b6102c65a03f115156121f757600080fd5b5050507fc3ec6e7296862136ee23a04b1409ab64b96bd1aa8d6b2c0bd7e17af61e13c3eb3383604051808373ffffffffffffffffffffffffffffffffffffffff1673ffffffffffffffffffffffffffffffffffffffff1681526020018281526020019250505060405180910390a15050565b600080600960009054906101000a900473ffffffffffffffffffffffffffffffffffffffff1673ffffffffffffffffffffffffffffffffffffffff163373ffffffffffffffffffffffffffffffffffffffff161415156122c857600080fd5b600460068111156122d557fe5b600e60149054906101000a900460ff1660068111156122f057fe5b148061232157506005600681111561230457fe5b600e60149054906101000a900460ff16600681111561231f57fe5b145b151561232c57600080fd5b6000809054906101000a900473ffffffffffffffffffffffffffffffffffffffff1673ffffffffffffffffffffffffffffffffffffffff166318160ddd6000604051602001526040518163ffffffff167c0100000000000000000000000000000000000000000000000000000000028152600401602060405180830381600087803b15156123b957600080fd5b6102c65a03f115156123ca57600080fd5b5050506040518051905091506123ff6102f86123f16103e885610a7690919063ffffffff16565b612bcd90919063ffffffff16565b90506000809054906101000a900473ffffffffffffffffffffffffffffffffffffffff1673ffffffffffffffffffffffffffffffffffffffff1663f0dda65c600660009054906101000a900473ffffffffffffffffffffffffffffffffffffffff166124896103e861247b86600a610a7690919063ffffffff16565b612bcd90919063ffffffff16565b6040518363ffffffff167c0100000000000000000000000000000000000000000000000000000000028152600401808373ffffffffffffffffffffffffffffffffffffffff1673ffffffffffffffffffffffffffffffffffffffff16815260200182815260200192505050600060405180830381600087803b151561250d57600080fd5b6102c65a03f1151561251e57600080fd5b5050506000809054906101000a900473ffffffffffffffffffffffffffffffffffffffff1673ffffffffffffffffffffffffffffffffffffffff1663f0dda65c600760009054906101000a900473ffffffffffffffffffffffffffffffffffffffff166125a96103e861259b86601e610a7690919063ffffffff16565b612bcd90919063ffffffff16565b6040518363ffffffff167c0100000000000000000000000000000000000000000000000000000000028152600401808373ffffffffffffffffffffffffffffffffffffffff1673ffffffffffffffffffffffffffffffffffffffff16815260200182815260200192505050600060405180830381600087803b151561262d57600080fd5b6102c65a03f1151561263e57600080fd5b5050506000809054906101000a900473ffffffffffffffffffffffffffffffffffffffff1673ffffffffffffffffffffffffffffffffffffffff1663f0dda65c600860009054906101000a900473ffffffffffffffffffffffffffffffffffffffff166126c96103e86126bb8660c8610a7690919063ffffffff16565b612bcd90919063ffffffff16565b6040518363ffffffff167c0100000000000000000000000000000000000000000000000000000000028152600401808373ffffffffffffffffffffffffffffffffffffffff1673ffffffffffffffffffffffffffffffffffffffff16815260200182815260200192505050600060405180830381600087803b151561274d57600080fd5b6102c65a03f1151561275e57600080fd5b5050506006600e60146101000a81548160ff0219169083600681111561278057fe5b02179055507ff030ef618479c4ab743d9a2f49a24488d2d10ba9eded73cd29a041664b98843b600660009054906101000a900473ffffffffffffffffffffffffffffffffffffffff16600760009054906101000a900473ffffffffffffffffffffffffffffffffffffffff16600860009054906101000a900473ffffffffffffffffffffffffffffffffffffffff16604051808473ffffffffffffffffffffffffffffffffffffffff1673ffffffffffffffffffffffffffffffffffffffff1681526020018373ffffffffffffffffffffffffffffffffffffffff1673ffffffffffffffffffffffffffffffffffffffff1681526020018273ffffffffffffffffffffffffffffffffffffffff1673ffffffffffffffffffffffffffffffffffffffff168152602001935050505060405180910390a15050565b6000620151806128d560045442612c0e90919063ffffffff16565b8115156128de57fe5b04905090565b600d60009054906101000a900473ffffffffffffffffffffffffffffffffffffffff1681565b600080828401905083811015151561291e57fe5b8091505092915050565b6001600681111561293557fe5b600e60149054906101000a900460ff16600681111561295057fe5b14156129ec576129a882601260008473ffffffffffffffffffffffffffffffffffffffff1673ffffffffffffffffffffffffffffffffffffffff1681526020019081526020016000205461290a90919063ffffffff16565b601260008373ffffffffffffffffffffffffffffffffffffffff1673ffffffffffffffffffffffffffffffffffffffff168152602001908152602001600020819055505b600460068111156129f957fe5b600e60149054906101000a900460ff166006811115612a1457fe5b1415612ab057612a6c82601360008473ffffffffffffffffffffffffffffffffffffffff1673ffffffffffffffffffffffffffffffffffffffff1681526020019081526020016000205461290a90919063ffffffff16565b601360008373ffffffffffffffffffffffffffffffffffffffff1673ffffffffffffffffffffffffffffffffffffffff168152602001908152602001600020819055505b5050565b600080600083111515612ac657600080fd5b612acf836113e2565b9150612ae4828461290a90919063ffffffff16565b9050612af08185612c27565b6000809054906101000a900473ffffffffffffffffffffffffffffffffffffffff1673ffffffffffffffffffffffffffffffffffffffff1663f0dda65c85836040518363ffffffff167c0100000000000000000000000000000000000000000000000000000000028152600401808373ffffffffffffffffffffffffffffffffffffffff1673ffffffffffffffffffffffffffffffffffffffff16815260200182815260200192505050600060405180830381600087803b1515612bb357600080fd5b6102c65a03f11515612bc457600080fd5b50505050505050565b600080600083111515612bdc57fe5b8284811515612be757fe5b0490508284811515612bf557fe5b068184020184141515612c0457fe5b8091505092915050565b6000828211151515612c1c57fe5b818303905092915050565b60016006811115612c3457fe5b600e60149054906101000a900460ff166006811115612c4f57fe5b1415612ceb57612ca782601460008473ffffffffffffffffffffffffffffffffffffffff1673ffffffffffffffffffffffffffffffffffffffff1681526020019081526020016000205461290a90919063ffffffff16565b601460008373ffffffffffffffffffffffffffffffffffffffff1673ffffffffffffffffffffffffffffffffffffffff168152602001908152602001600020819055505b60046006811115612cf857fe5b600e60149054906101000a900460ff166006811115612d1357fe5b1415612daf57612d6b82601560008473ffffffffffffffffffffffffffffffffffffffff1673ffffffffffffffffffffffffffffffffffffffff1681526020019081526020016000205461290a90919063ffffffff16565b601560008373ffffffffffffffffffffffffffffffffffffffff1673ffffffffffffffffffffffffffffffffffffffff168152602001908152602001600020819055505b50505600a165627a7a72305820906445d902b78630bf2935311fcc80a2243b346efbe038b584dceece8a79f31400296060604052600080556040805190810160405280600a81526020017f4169646120544f4b454e00000000000000000000000000000000000000000000815250600390805190602001906200005592919062000135565b506040805190810160405280600381526020017f414944000000000000000000000000000000000000000000000000000000000081525060049080519060200190620000a392919062000135565b5060126005556001600660146101000a81548160ff0219169083151502179055503415620000d057600080fd5b604051602080620013858339810160405280805190602001909190505080600660006101000a81548173ffffffffffffffffffffffffffffffffffffffff021916908373ffffffffffffffffffffffffffffffffffffffff16021790555050620001e4565b828054600181600116156101000203166002900490600052602060002090601f016020900481019282601f106200017857805160ff1916838001178555620001a9565b82800160010185558215620001a9579182015b82811115620001a85782518255916020019190600101906200018b565b5b509050620001b89190620001bc565b5090565b620001e191905b80821115620001dd576000816000905550600101620001c3565b5090565b90565b61119180620001f46000396000f3006060604052600436106100d0576000357c0100000000000000000000000000000000000000000000000000000000900463ffffffff16806306fdde03146100d5578063095ea7b3146101635780630d1118ce146101bd57806318160ddd146101ff57806323b872dd14610228578063313ce567146102a15780635d452201146102ca57806370a082311461031f5780638e0ef0331461036c57806395d89b4114610381578063a9059cbb1461040f578063ca67065f14610469578063dd62ed3e14610496578063f0dda65c14610502575b600080fd5b34156100e057600080fd5b6100e8610544565b6040518080602001828103825283818151815260200191508051906020019080838360005b8381101561012857808201518184015260208101905061010d565b50505050905090810190601f1680156101555780820380516001836020036101000a031916815260200191505b509250505060405180910390f35b341561016e57600080fd5b6101a3600480803573ffffffffffffffffffffffffffffffffffffffff169060200190919080359060200190919050506105e2565b604051808215151515815260200191505060405180910390f35b34156101c857600080fd5b6101fd600480803573ffffffffffffffffffffffffffffffffffffffff16906020019091908035906020019091905050610769565b005b341561020a57600080fd5b610212610915565b6040518082815260200191505060405180910390f35b341561023357600080fd5b610287600480803573ffffffffffffffffffffffffffffffffffffffff1690602001909190803573ffffffffffffffffffffffffffffffffffffffff1690602001909190803590602001909190505061091b565b604051808215151515815260200191505060405180910390f35b34156102ac57600080fd5b6102b4610be2565b6040518082815260200191505060405180910390f35b34156102d557600080fd5b6102dd610be8565b604051808273ffffffffffffffffffffffffffffffffffffffff1673ffffffffffffffffffffffffffffffffffffffff16815260200191505060405180910390f35b341561032a57600080fd5b610356600480803573ffffffffffffffffffffffffffffffffffffffff16906020019091905050610c0e565b6040518082815260200191505060405180910390f35b341561037757600080fd5b61037f610c57565b005b341561038c57600080fd5b610394610cd0565b6040518080602001828103825283818151815260200191508051906020019080838360005b838110156103d45780820151818401526020810190506103b9565b50505050905090810190601f1680156104015780820380516001836020036101000a031916815260200191505b509250505060405180910390f35b341561041a57600080fd5b61044f600480803573ffffffffffffffffffffffffffffffffffffffff16906020019091908035906020019091905050610d6e565b604051808215151515815260200191505060405180910390f35b341561047457600080fd5b61047c610f25565b604051808215151515815260200191505060405180910390f35b34156104a157600080fd5b6104ec600480803573ffffffffffffffffffffffffffffffffffffffff1690602001909190803573ffffffffffffffffffffffffffffffffffffffff16906020019091905050610f38565b6040518082815260200191505060405180910390f35b341561050d57600080fd5b610542600480803573ffffffffffffffffffffffffffffffffffffffff16906020019091908035906020019091905050610fbf565b005b60038054600181600116156101000203166002900480601f0160208091040260200160405190810160405280929190818152602001828054600181600116156101000203166002900480156105da5780601f106105af576101008083540402835291602001916105da565b820191906000526020600020905b8154815290600101906020018083116105bd57829003601f168201915b505050505081565b60008082148061066e57506000600260003373ffffffffffffffffffffffffffffffffffffffff1673ffffffffffffffffffffffffffffffffffffffff16815260200190815260200160002060008573ffffffffffffffffffffffffffffffffffffffff1673ffffffffffffffffffffffffffffffffffffffff16815260200190815260200160002054145b151561067957600080fd5b81600260003373ffffffffffffffffffffffffffffffffffffffff1673ffffffffffffffffffffffffffffffffffffffff16815260200190815260200160002060008573ffffffffffffffffffffffffffffffffffffffff1673ffffffffffffffffffffffffffffffffffffffff168152602001908152602001600020819055508273ffffffffffffffffffffffffffffffffffffffff163373ffffffffffffffffffffffffffffffffffffffff167f8c5be1e5ebec7d5bd14f71427d1e84f3dd0314c0f7b2291e5b200ac8c7c3b925846040518082815260200191505060405180910390a36001905092915050565b600660009054906101000a900473ffffffffffffffffffffffffffffffffffffffff1673ffffffffffffffffffffffffffffffffffffffff163373ffffffffffffffffffffffffffffffffffffffff161415156107c557600080fd5b6000600160008473ffffffffffffffffffffffffffffffffffffffff1673ffffffffffffffffffffffffffffffffffffffff1681526020019081526020016000205411151561081357600080fd5b6108288160005461112e90919063ffffffff16565b60008190555061088081600160008573ffffffffffffffffffffffffffffffffffffffff1673ffffffffffffffffffffffffffffffffffffffff1681526020019081526020016000205461112e90919063ffffffff16565b600160008473ffffffffffffffffffffffffffffffffffffffff1673ffffffffffffffffffffffffffffffffffffffff168152602001908152602001600020819055508173ffffffffffffffffffffffffffffffffffffffff167fcc16f5dbb4873280815c1ee09dbd06736cffcc184412cf7a71a0fdb75d397ca5826040518082815260200191505060405180910390a25050565b60005481565b6000600660149054906101000a900460ff1615151561093957600080fd5b61098b82600160008773ffffffffffffffffffffffffffffffffffffffff1673ffffffffffffffffffffffffffffffffffffffff1681526020019081526020016000205461112e90919063ffffffff16565b600160008673ffffffffffffffffffffffffffffffffffffffff1673ffffffffffffffffffffffffffffffffffffffff16815260200190815260200160002081905550610a5d82600260008773ffffffffffffffffffffffffffffffffffffffff1673ffffffffffffffffffffffffffffffffffffffff16815260200190815260200160002060003373ffffffffffffffffffffffffffffffffffffffff1673ffffffffffffffffffffffffffffffffffffffff1681526020019081526020016000205461112e90919063ffffffff16565b600260008673ffffffffffffffffffffffffffffffffffffffff1673ffffffffffffffffffffffffffffffffffffffff16815260200190815260200160002060003373ffffffffffffffffffffffffffffffffffffffff1673ffffffffffffffffffffffffffffffffffffffff16815260200190815260200160002081905550610b2f82600160008673ffffffffffffffffffffffffffffffffffffffff1673ffffffffffffffffffffffffffffffffffffffff1681526020019081526020016000205461114790919063ffffffff16565b600160008573ffffffffffffffffffffffffffffffffffffffff1673ffffffffffffffffffffffffffffffffffffffff168152602001908152602001600020819055508273ffffffffffffffffffffffffffffffffffffffff168473ffffffffffffffffffffffffffffffffffffffff167fddf252ad1be2c89b69c2b068fc378daa952ba7f163c4a11628f55a4df523b3ef846040518082815260200191505060405180910390a3600190509392505050565b60055481565b600660009054906101000a900473ffffffffffffffffffffffffffffffffffffffff1681565b6000600160008373ffffffffffffffffffffffffffffffffffffffff1673ffffffffffffffffffffffffffffffffffffffff168152602001908152602001600020549050919050565b600660009054906101000a900473ffffffffffffffffffffffffffffffffffffffff1673ffffffffffffffffffffffffffffffffffffffff163373ffffffffffffffffffffffffffffffffffffffff16141515610cb357600080fd5b6000600660146101000a81548160ff021916908315150217905550565b60048054600181600116156101000203166002900480601f016020809104026020016040519081016040528092919081815260200182805460018160011615610100020316600290048015610d665780601f10610d3b57610100808354040283529160200191610d66565b820191906000526020600020905b815481529060010190602001808311610d4957829003601f168201915b505050505081565b6000600660149054906101000a900460ff16151515610d8c57600080fd5b610dde82600160003373ffffffffffffffffffffffffffffffffffffffff1673ffffffffffffffffffffffffffffffffffffffff1681526020019081526020016000205461112e90919063ffffffff16565b600160003373ffffffffffffffffffffffffffffffffffffffff1673ffffffffffffffffffffffffffffffffffffffff16815260200190815260200160002081905550610e7382600160008673ffffffffffffffffffffffffffffffffffffffff1673ffffffffffffffffffffffffffffffffffffffff1681526020019081526020016000205461114790919063ffffffff16565b600160008573ffffffffffffffffffffffffffffffffffffffff1673ffffffffffffffffffffffffffffffffffffffff168152602001908152602001600020819055508273ffffffffffffffffffffffffffffffffffffffff163373ffffffffffffffffffffffffffffffffffffffff167fddf252ad1be2c89b69c2b068fc378daa952ba7f163c4a11628f55a4df523b3ef846040518082815260200191505060405180910390a36001905092915050565b600660149054906101000a900460ff1681565b6000600260008473ffffffffffffffffffffffffffffffffffffffff1673ffffffffffffffffffffffffffffffffffffffff16815260200190815260200160002060008373ffffffffffffffffffffffffffffffffffffffff1673ffffffffffffffffffffffffffffffffffffffff16815260200190815260200160002054905092915050565b600660009054906101000a900473ffffffffffffffffffffffffffffffffffffffff1673ffffffffffffffffffffffffffffffffffffffff163373ffffffffffffffffffffffffffffffffffffffff1614151561101b57600080fd5b60008111151561102a57600080fd5b61107c81600160008573ffffffffffffffffffffffffffffffffffffffff1673ffffffffffffffffffffffffffffffffffffffff1681526020019081526020016000205461114790919063ffffffff16565b600160008473ffffffffffffffffffffffffffffffffffffffff1673ffffffffffffffffffffffffffffffffffffffff168152602001908152602001600020819055506110d48160005461114790919063ffffffff16565b6000819055508173ffffffffffffffffffffffffffffffffffffffff1660007fddf252ad1be2c89b69c2b068fc378daa952ba7f163c4a11628f55a4df523b3ef836040518082815260200191505060405180910390a35050565b600082821115151561113c57fe5b818303905092915050565b600080828401905083811015151561115b57fe5b80915050929150505600a165627a7a7230582056d2a48119087ec35ece139e35ba5f38182c0705747095c7669c2c387d3fcf8b0029",
  "source": "// AID tokensale smart contract.\n// Developed by Phenom.Team <info@phenom.team>\n\n// pragma solidity ^ 0.4.15;\n\n/**\n *   @title SafeMath\n *   @dev Math operations with safety checks that throw on error\n */\nlibrary SafeMath {\n    function mul(uint256 a, uint256 b) internal constant returns (uint256) {\n        uint256 c = a * b;\n        assert(a == 0 || c / a == b);\n        return c;\n    }\n\n    function div(uint256 a, uint256 b) internal constant returns(uint256) {\n        assert(b > 0);\n        uint256 c = a / b;\n        assert(a == b * c + a % b);\n        return c;\n    }\n\n    function sub(uint256 a, uint256 b) internal constant returns(uint256) {\n        assert(b <= a);\n        return a - b;\n    }\n\n    function add(uint256 a, uint256 b) internal constant returns(uint256) {\n        uint256 c = a + b;\n        assert(c >= a);\n        return c;\n    }\n}\n\n\n/**\n *   @title ERC20\n *   @dev Standart ERC20 token interface\n */\ncontract ERC20 {\n    uint256 public totalSupply = 0;\n    mapping(address => uint256) balances;\n    mapping(address => mapping(address => uint256)) allowed;\n    function balanceOf(address _owner) public constant returns(uint256);\n    function transfer(address _to, uint256 _value) public returns(bool);\n    function transferFrom(address _from, address _to, uint256 _value) public returns(bool);\n    function approve(address _spender, uint256 _value) public returns(bool);\n    function allowance(address _owner, address _spender) public constant returns(uint256);\n    event Transfer(address indexed _from, address indexed _to, uint256 _value);\n    event Approval(address indexed _owner, address indexed _spender, uint256 _value);\n}\n\n/**\n*   @title AidaICO contract  - takes funds from users and issues tokens\n*   @dev AidaICO - it's the first ever contract for ICO which allows users to\n*                  return their investments.\n*/\ncontract AidaICO {\n    // AID - Aida token contract\n    AidaToken public AID = new AidaToken(this);\n    using SafeMath for uint256;\n\n    // Token price parameters\n    // These parametes can be changed only by manager of contract\n    uint256 public Rate_Eth = 700; // Rate USD per ETH\n    uint256 public Tokens_Per_Dollar = 4; // Aida token per dollar\n    uint256 public Token_Price = Tokens_Per_Dollar.mul(Rate_Eth); // Aida token per ETH\n\n    // Crowdfunding parameters\n    uint256 constant ICO_RETURN_DURATION = 9; //\n    // ICO duration: 21.01.18  - 10.01,18\n    // return duration: 21.01.18 - 30.01.18\n    // Investors can return their investments during ICO_RETURN_DURATION\n    // Company can withdraw  ether from ico contract after ICO_RETURN_DURATION\n    uint256 constant bountyPart = 10; // 1% of TotalSupply for BountyFund\n    uint256 constant partnersPart = 30; //3% f TotalSupply for PartnersFund\n    uint256 constant teamPart = 200; //20% of TotalSupply for TeamFund\n    uint256 constant icoAndPOfPart = 760; // 76% of TotalSupply for PublicICO and PrivateOffer\n    uint256 startTime = 0; // Start time timestamp\n\n    // Output ethereum addresses\n    address public Company;\n    address public BountyFund;\n    address public PartnersFund;\n    address public TeamFund;\n    address public Manager; // Manager controls contract\n    address public Controller_Address1; // First address that is used to buy tokens for other cryptos\n    address public Controller_Address2; // Second address that is used to buy tokens for other cryptos\n    address public Controller_Address3; // Third address that is used to buy tokens for other cryptos\n    address public Oracle; // Oracle address\n    address public RefundManager; // Refund manager address\n\n    // Possible ICO statuses\n    enum StatusICO {\n        Created,\n        PreIcoStarted,\n        PreIcoPaused,\n        PreIcoFinished,\n        IcoStarted,\n        IcoPaused,\n        IcoFinished\n    }\n\n    StatusICO statusICO = StatusICO.Created;\n\n    // Mappings\n    mapping(address => uint256) public ethPreIco; // Mapping for remembering eth of investors who paid at PreICO\n    mapping(address => uint256) public ethIco; // Mapping for remembering eth of investors who paid at ICO\n    mapping(address => bool) public used; // Users can return their funds one time\n    mapping(address => uint256) public tokensPreIco; // Mapping for remembering tokens of investors who paid at preICO in ether\n    mapping(address => uint256) public tokensIco; // Mapping for remembering tokens of investors who paid at ICO in ethre\n    mapping(address => uint256) public tokensPreIcoInOtherCrypto; // Mapping for remembering tokens of investors who paid at preICO in other crypto currencies\n    mapping(address => uint256) public tokensIcoInOtherCrypto; // Mapping for remembering tokens of investors who paid at ICO in other crypto currencies\n\n    // Events Log\n    event LogStartICO();\n    event LogPauseICO();\n    event LogFinishICO(address bountyFund, address partnersFund, address teamFund);\n    event LogBuyForInvestor(address investor, uint256 aidValue, string txHash);\n    event LogReturnEth(address investor, uint256 eth);\n    event LogReturnOtherCrypto(address investor, string logString);\n\n    // Modifiers\n    // Allows execution by the refund manager only\n    modifier refundManagerOnly {\n        require(msg.sender == RefundManager);\n        _;\n    }\n    // Allows execution by the oracle only\n    modifier oracleOnly {\n        require(msg.sender == Oracle);\n        _;\n    }\n    // Allows execution by the contract manager only\n    modifier managerOnly {\n        require(msg.sender == Manager);\n        _;\n    }\n    // Allows execution by the one of controllers only\n    modifier controllersOnly {\n      require((msg.sender == Controller_Address1)\n           || (msg.sender == Controller_Address2)\n           || (msg.sender == Controller_Address3));\n      _;\n    }\n\n\n   /**\n    *   @dev Contract constructor function\n    */\n    function AidaICO(\n        address _Company,\n        address _BountyFund,\n        address _PartnersFund,\n        address _TeamFund,\n        address _Manager,\n        address _Controller_Address1,\n        address _Controller_Address2,\n        address _Controller_Address3,\n        address _Oracle,\n        address _RefundManager\n    )\n        public {\n        Company = _Company;\n        BountyFund = _BountyFund;\n        PartnersFund = _PartnersFund;\n        TeamFund = _TeamFund;\n        Manager = _Manager;\n        Controller_Address1 = _Controller_Address1;\n        Controller_Address2 = _Controller_Address2;\n        Controller_Address3 = _Controller_Address3;\n        Oracle = _Oracle;\n        RefundManager = _RefundManager;\n    }\n\n   /**\n    *   @dev Set rate of ETH and update token price\n    *   @param _RateEth       current ETH rate\n    */\n    function setRate(uint256 _RateEth) external oracleOnly {\n        Rate_Eth = _RateEth;\n        Token_Price = Tokens_Per_Dollar.mul(Rate_Eth);\n    }\n\n   /**\n    *   @dev Start PreIco\n    *   Set ICO status to PreIcoStarted\n    */\n    function startPreIco() external managerOnly {\n        require(statusICO == StatusICO.Created || statusICO == StatusICO.PreIcoPaused);\n        statusICO = StatusICO.PreIcoStarted;\n        LogStartICO();\n    }\n\n   /**\n    *   @dev Pause PreIco\n    *   Set Ico status to PreIcoPaused\n    */\n    function pausePreIco() external managerOnly {\n        require(statusICO == StatusICO.PreIcoStarted);\n        statusICO = StatusICO.PreIcoPaused;\n        LogPauseICO();\n    }\n   /**\n    *   @dev Finish PreIco\n    *   Set Ico status to PreIcoFinished\n    */\n    function finishPreIco() external managerOnly {\n        require(statusICO == StatusICO.PreIcoStarted || statusICO == StatusICO.PreIcoPaused);\n        statusICO = StatusICO.PreIcoFinished;\n        LogPauseICO();\n    }\n\n   /**\n    *   @dev Start ICO\n    *   Set start ICO time\n    *   Set ICO status to IcoStarted\n    */\n    function startIco() external managerOnly {\n        require(statusICO == StatusICO.PreIcoFinished || statusICO == StatusICO.IcoPaused);\n        if (statusICO == StatusICO.PreIcoFinished) {\n            startTime = now;\n        }\n        statusICO = StatusICO.IcoStarted;\n        LogStartICO();\n    }\n\n   /**\n    *   @dev Pause Ico\n    *   Set Ico status to IcoPaused\n    */\n    function pauseIco() external managerOnly {\n        require(statusICO == StatusICO.IcoStarted);\n        statusICO = StatusICO.IcoPaused;\n        LogPauseICO();\n    }\n\n   /**\n    *   @dev Finish ICO and emit tokens for bounty company, partners and team\n    */\n    function finishIco() external managerOnly {\n        require(statusICO == StatusICO.IcoStarted || statusICO == StatusICO.IcoPaused);\n        uint256 alreadyMinted = AID.totalSupply(); // = PublicICO\n        uint256 totalAmount = alreadyMinted.mul(1000).div(icoAndPOfPart);\n        AID.mintTokens(BountyFund, bountyPart.mul(totalAmount).div(1000));\n        AID.mintTokens(PartnersFund, partnersPart.mul(totalAmount).div(1000));\n        AID.mintTokens(TeamFund, teamPart.mul(totalAmount).div(1000));\n        statusICO = StatusICO.IcoFinished;\n        LogFinishICO(BountyFund, PartnersFund, TeamFund);\n    }\n\n   /**\n    *   @dev Unfreeze tokens(enable token transfers)\n    */\n    function enableTokensTransfer() external managerOnly {\n        require(statusICO == StatusICO.IcoFinished);\n        AID.defrostTokens();\n    }\n\n   /**\n    *   @dev Fallback function calls createTokensForEth() function to create tokens\n    *        when investor sends ETH to address of ICO contract\n    */\n    function() external payable {\n        require(statusICO == StatusICO.PreIcoStarted || statusICO == StatusICO.IcoStarted);\n        createTokensForEth(msg.sender, msg.value.mul(Token_Price));\n        rememberEther(msg.value, msg.sender);\n    }\n\n   /**\n    *   @dev Store how many eth were invested by investor\n    *   @param _value        amount of invested ether in Wei\n    *   @param _investor     address of investor\n    */\n    function rememberEther(uint256 _value, address _investor) internal {\n        if (statusICO == StatusICO.PreIcoStarted) {\n            ethPreIco[_investor] = ethPreIco[_investor].add(_value);\n        }\n        if (statusICO == StatusICO.IcoStarted) {\n            ethIco[_investor] = ethIco[_investor].add(_value);\n        }\n    }\n\n   /**\n    *   @dev Writes how many tokens investor received(for payments in ETH)\n    *   @param _value        amount of tokens\n    *   @param _investor     address of investor\n    */\n    function rememberTokensEth(uint256 _value, address _investor) internal {\n        if (statusICO == StatusICO.PreIcoStarted) {\n            tokensPreIco[_investor] = tokensPreIco[_investor].add(_value);\n        }\n        if (statusICO == StatusICO.IcoStarted) {\n            tokensIco[_investor] = tokensIco[_investor].add(_value);\n        }\n    }\n\n   /**\n    *   @dev Writes how many tokens investor received(for payments in other cryptocurrencies)\n    *   @param _value        amount of tokens\n    *   @param _investor     address of investor\n    */\n    function rememberTokensOtherCrypto(uint256 _value, address _investor) internal {\n        if (statusICO == StatusICO.PreIcoStarted) {\n            tokensPreIcoInOtherCrypto[_investor] = tokensPreIcoInOtherCrypto[_investor].add(_value);\n        }\n        if (statusICO == StatusICO.IcoStarted) {\n            tokensIcoInOtherCrypto[_investor] = tokensIcoInOtherCrypto[_investor].add(_value);\n        }\n    }\n\n   /**\n    *   @dev Issues tokens for users who made purchases in other cryptocurrencies\n    *   @param _investor     address the tokens will be issued to\n    *   @param _txHash       transaction hash of investor's payment\n    *   @param _aidValue     number of Aida tokens\n    */\n    function buyForInvestor(\n        address _investor,\n        uint256 _aidValue,\n        string _txHash\n    )\n        external\n        controllersOnly {\n        require(statusICO == StatusICO.PreIcoStarted || statusICO == StatusICO.IcoStarted);\n        createTokensForOtherCrypto(_investor, _aidValue);\n        LogBuyForInvestor(_investor, _aidValue, _txHash);\n    }\n\n   /**\n    *   @dev Issue tokens for investors who paid in other cryptocurrencies\n    *   @param _investor     address which the tokens will be issued to\n    *   @param _aidValue     number of Aida tokens\n    */\n    function createTokensForOtherCrypto(address _investor, uint256 _aidValue) internal {\n        require(_aidValue > 0);\n        uint256 bonus = getBonus(_aidValue);\n        uint256 total = _aidValue.add(bonus);\n        rememberTokensOtherCrypto(total, _investor);\n        AID.mintTokens(_investor, total);\n    }\n\n   /**\n    *   @dev Issue tokens for investors who paid in ether\n    *   @param _investor     address which the tokens will be issued to\n    *   @param _aidValue     number of Aida tokens\n    */\n    function createTokensForEth(address _investor, uint256 _aidValue) internal {\n        require(_aidValue > 0);\n        uint256 bonus = getBonus(_aidValue);\n        uint256 total = _aidValue.add(bonus);\n        rememberTokensEth(total, _investor);\n        AID.mintTokens(_investor, total);\n    }\n\n   /**\n    *   @dev Calculates bonus if PreIco sales still not over\n    *   @param _value        amount of tokens\n    *   @return              bonus value\n    */\n    function getBonus(uint256 _value)\n        public\n        constant\n        returns(uint256)\n    {\n        uint256 bonus = 0;\n        if (statusICO == StatusICO.PreIcoStarted) {\n            bonus = _value.mul(15).div(100);\n        }\n        return bonus;\n    }\n\n   /**\n    *   @dev Count days from Ico start day\n    */\n    function daysFromIcoStart()\n        public\n        constant\n        returns(uint256)\n    {\n        return now.sub(startTime) / 24 hours;\n    }\n\n   /**\n    *   @dev Allows investors to return their investments(in ETH)\n    *   if preICO or ICO_RETURN_DURATION is not over yet\n    *   and burns tokens\n    */\n    function returnEther() public {\n        require(!used[msg.sender]);\n        uint256 eth = 0;\n        uint256 tokens = 0;\n        if (statusICO == StatusICO.PreIcoStarted) {\n            require(ethPreIco[msg.sender] > 0);\n            eth = ethPreIco[msg.sender];\n            tokens = tokensPreIco[msg.sender];\n            ethPreIco[msg.sender] = 0;\n            tokensPreIco[msg.sender] = 0;\n        }\n        if (statusICO == StatusICO.IcoStarted) {\n            require(ethIco[msg.sender] > 0);\n            require(daysFromIcoStart() <= ICO_RETURN_DURATION);\n            eth = ethIco[msg.sender];\n            tokens = tokensIco[msg.sender];\n            ethIco[msg.sender] = 0;\n            tokensIco[msg.sender] = 0;\n        }\n        msg.sender.transfer(eth);\n        used[msg.sender] = true;\n        AID.burnTokens(msg.sender, tokens);\n        LogReturnEth(msg.sender, eth);\n    }\n\n   /**\n    *   @dev Burn tokens of investors who paid in other cryptocurrencies\n    *   if preICO or ICO_RETURN_DURATION is not over yet\n    *   @param _investor     address which the tokens will be burnt\n    *   @param _logString    string which contain payment information\n    */\n    function returnOtherCrypto(\n        address _investor,\n        string _logString\n    )\n        external\n        refundManagerOnly {\n        uint256 tokens = 0;\n        if (statusICO == StatusICO.PreIcoStarted) {\n            tokens = tokensPreIcoInOtherCrypto[_investor];\n            tokensPreIcoInOtherCrypto[_investor] = 0;\n        }\n        if (statusICO == StatusICO.IcoStarted) {\n            require(daysFromIcoStart() <= ICO_RETURN_DURATION);\n            tokens = tokensIcoInOtherCrypto[_investor];\n            tokensIcoInOtherCrypto[_investor] = 0;\n        }\n        AID.burnTokens(_investor, tokens);\n        LogReturnOtherCrypto(_investor, _logString);\n    }\n\n   /**\n    *   @dev Allows Company withdraw investments when ICO_RETURN_DURATION is over\n    *   @param _value        amount of ETH to send in Wei\n    */\n    function withdrawEther(uint256 _value) external managerOnly {\n        require(daysFromIcoStart() > ICO_RETURN_DURATION);\n        Company.transfer(_value);\n    }\n\n}\n\n\n/**\n *   @title AidaToken\n *   @dev Aida token contract\n */\ncontract AidaToken is ERC20 {\n    using SafeMath for uint256;\n    string public name = \"Aida TOKEN\";\n    string public symbol = \"AID\";\n    uint256 public decimals = 18;\n\n    // Ico contract address\n    address public ico;\n    event Burn(address indexed from, uint256 value);\n\n    // Disables/enables token transfers\n    bool public tokensAreFrozen = true;\n\n    // Allows execution by the owner only\n    modifier icoOnly {\n        require(msg.sender == ico);\n        _;\n    }\n\n   /**\n    *   @dev Contract constructor function sets Ico address\n    *   @param _ico          ico address\n    */\n    function AidaToken(address _ico) public {\n        ico = _ico;\n    }\n\n   /**\n    *   @dev Mint tokens\n    *   @param _holder       beneficiary address the tokens will be issued to\n    *   @param _value        number of tokens to issue\n    */\n    function mintTokens(address _holder, uint256 _value) external icoOnly {\n        require(_value > 0);\n        balances[_holder] = balances[_holder].add(_value);\n        totalSupply = totalSupply.add(_value);\n        Transfer(0x0, _holder, _value);\n    }\n\n   /**\n    *   @dev Disables/enables token transfers\n    */\n    function defrostTokens() external icoOnly {\n      tokensAreFrozen = false;\n    }\n\n   /**\n    *   @dev Burn Tokens\n    *   @param _investor     token holder address which the tokens will be burnt\n    *   @param _value        number of tokens to burn\n    */\n    function burnTokens(address _investor, uint256 _value) external icoOnly {\n        require(balances[_investor] > 0);\n        totalSupply = totalSupply.sub(_value);\n        balances[_investor] = balances[_investor].sub(_value);\n        Burn(_investor, _value);\n    }\n\n   /**\n    *   @dev Get balance of investor\n    *   @param _owner        investor's address\n    *   @return              balance of investor\n    */\n    function balanceOf(address _owner) public constant returns(uint256) {\n      return balances[_owner];\n    }\n\n   /**\n    *   @dev Send coins\n    *   throws on any error rather then return a false flag to minimize\n    *   user errors\n    *   @param _to           target address\n    *   @param _amount       transfer amount\n    *\n    *   @return true if the transfer was successful\n    */\n    function transfer(address _to, uint256 _amount) public returns(bool) {\n        require(!tokensAreFrozen);\n        balances[msg.sender] = balances[msg.sender].sub(_amount);\n        balances[_to] = balances[_to].add(_amount);\n        Transfer(msg.sender, _to, _amount);\n        return true;\n    }\n\n   /**\n    *   @dev An account/contract attempts to get the coins\n    *   throws on any error rather then return a false flag to minimize user errors\n    *\n    *   @param _from         source address\n    *   @param _to           target address\n    *   @param _amount       transfer amount\n    *\n    *   @return true if the transfer was successful\n    */\n    function transferFrom(address _from, address _to, uint256 _amount) public returns(bool) {\n        require(!tokensAreFrozen);\n        balances[_from] = balances[_from].sub(_amount);\n        allowed[_from][msg.sender] = allowed[_from][msg.sender].sub(_amount);\n        balances[_to] = balances[_to].add(_amount);\n        Transfer(_from, _to, _amount);\n        return true;\n    }\n\n   /**\n    *   @dev Allows another account/contract to spend some tokens on its behalf\n    *   throws on any error rather then return a false flag to minimize user errors\n    *\n    *   also, to minimize the risk of the approve/transferFrom attack vector\n    *   approve has to be called twice in 2 separate transactions - once to\n    *   change the allowance to 0 and secondly to change it to the new allowance\n    *   value\n    *\n    *   @param _spender      approved address\n    *   @param _amount       allowance amount\n    *\n    *   @return true if the approval was successful\n    */\n    function approve(address _spender, uint256 _amount) public returns(bool) {\n        require((_amount == 0) || (allowed[msg.sender][_spender] == 0));\n        allowed[msg.sender][_spender] = _amount;\n        Approval(msg.sender, _spender, _amount);\n        return true;\n    }\n\n   /**\n    *   @dev Function to check the amount of tokens that an owner allowed to a spender.\n    *\n    *   @param _owner        the address which owns the funds\n    *   @param _spender      the address which will spend the funds\n    *\n    *   @return              the amount of tokens still avaible for the spender\n    */\n    function allowance(address _owner, address _spender) public constant returns(uint256) {\n        return allowed[_owner][_spender];\n    }\n}\n",
  "sourcePath": "/Users/puhoshville/Documents/phenom/repos/AIDA_ICO_SmartContract/contracts/ICO.sol",
  "compiler": {
    "name": "solc",
    "version": "0.4.18+commit.9cf6e910.Emscripten.clang"
  },
  "schemaVersion": "1.0.1",
  "updatedAt": "2017-12-20T23:34:12.915Z"
}